:100000000C9434000C9446000C9446000C9446006A
:100010000C9446000C9446000C9446000C94460048
:100020000C9446000C9446000C9446000C94460038
:100030000C9446000C9446000C9446000C94460028
:100040000C9446000C9446000C9448000C94460016
:100050000C9446000C9446000C9446000C94460008
:100060000C9446000C94460011241FBECFEFD8E03C
:10007000DEBFCDBF21E0A0E0B1E001C01D92A33002
:10008000B207E1F70E9463000C9400030C94000097
:100090001F920F920FB60F9211248F93EF93FF933D
:1000A000E6ECF0E080818093020180910201808380
:1000B00081E080930101FF91EF918F910F900FBE2E
:1000C0000F901F9018950E94EE000E94640288E62F
:1000D0000E940101789480910101882309F464C091
:1000E000809102018B3421F0809102018B3631F432
:1000F0009091000181E089278093000180910201A5
:10010000873521F080910201873749F480E293E03E
:100110000E94A30280E293E00E94C20232C080915A
:100120000201833521F080910201833749F480EE8A
:100130009CEF0E94A30280EE9CEF0E94C20221C0AD
:1001400080910201813421F080910201813649F4CD
:1001500080E293E00E94A30280EE9CEF0E94C20224
:1001600010C080910201843421F080910201843614
:1001700041F480EE9CEF0E94A30280E293E00E9493
:10018000C2022FEF84E39CE0215080409040E1F7D1
:1001900000C0000080E090E00E94A30280E090E0B8
:1001A0000E94C2021092010180910001811105C0DC
:1001B00080E090E00E94E1028ECF80E293E00E9416
:1001C000E10289CF84EA8093BC008091BC0088233F
:1001D000E4F7089584E98093BC000895ECEBF0E027
:1001E000108288E08093B80084E080830895809333
:1001F000BB0084E88093BC008091BC008823E4F7B6
:10020000089598E99093C10096E09093C20080937E
:10021000C40008950F931F93CF93DF938C01D62FC3
:100220000E94E20080E20E94F700C0E007C0F801EF
:10023000EC0FF11D80810E94F700CF5FCD17B8F35E
:100240000E94EA00DF91CF911F910F9108950E94C3
:10025000E20080E20E94F70086E90E94F70084E74E
:100260000E94F7000E94EA000895CF92DF92EF9279
:10027000FF920F931F93CF93DF93CDB7DEB76497B1
:100280000FB6F894DEBF0FBECDBF7B010F2EFCE989
:10029000DF2EF02DD98201E00A832AE02B83282F5C
:1002A0002F77C22E2C83880F892F881F990B919549
:1002B000182F1F771D8365E0CE0101960E940A0169
:1002C000DE820F838CE08887C9861A8765E0CE01BD
:1002D00006960E940A01DB860C878EE08D87CE860B
:1002E000C701880F892F881F990B9195182F1F77A9
:1002F0001F8765E0CE010B960E940A01D88A098B00
:1003000080E18A8B8E2D8F778B8B1C8B65E0CE01E5
:1003100040960E940A0164960FB6F894DEBF0FBEA5
:10032000CDBFDF91CF911F910F91FF90EF90DF90A4
:10033000CF900895CF92DF92EF92FF920F931F9389
:10034000CF93DF93CDB7DEB764970FB6F894DEBFD7
:100350000FBECDBF7B010F2EFCE9DF2EF02DD98221
:1003600002E00A832AE02B83282F2F77C22E2C83CA
:10037000880F892F881F990B9195182F1F771D8340
:1003800065E0CE0101960E940A01DE820F838CE0B7
:100390008887C9861A8765E0CE0106960E940A0101
:1003A000DB860C878EE08D87CE86C701880F892F6C
:1003B000881F990B9195182F1F771F8765E0CE0135
:1003C0000B960E940A01D88A098B80E18A8B8E2DB8
:1003D0008F778B8B1C8B65E0CE0140960E940A01C3
:1003E00064960FB6F894DEBF0FBECDBFDF91CF91FC
:1003F0001F910F91FF90EF90DF90CF900895CF92D3
:10040000DF92EF92FF920F931F93CF93DF93CDB7BD
:10041000DEB764970FB6F894DEBF0FBECDBF7B0189
:100420000F2EFCE9DF2EF02DD98203E00A832AE0AB
:100430002B83282F2F77C22E2C83880F892F881F7C
:10044000990B9195182F1F771D8365E0CE010196BA
:100450000E940A01DE820F838CE08887C9861A8792
:1004600065E0CE0106960E940A01DB860C878EE0CD
:100470008D87CE86C701880F892F881F990B91958C
:10048000182F1F771F8765E0CE010B960E940A0187
:10049000D88A098B80E18A8B8E2D8F778B8B1C8B72
:1004A00065E0CE0140960E940A0164960FB6F8946A
:1004B000DEBF0FBECDBFDF91CF911F910F91FF9097
:1004C000EF90DF90CF9008951F93CF93DF93CDB738
:1004D000DEB727970FB6F894DEBF0FBECDBF0E94E0
:1004E00027018BE8898314E01A838BE78B8383E4ED
:1004F0008C8364E0CE0101960E940A0189EA8D8313
:100500001E821F8363E0CE0105960E940A0160E20D
:1005100073E080E293E00E94350160E273E080E2E4
:1005200093E00E949A0160E273E080E293E00E940F
:10053000FF0127960FB6F894DEBF0FBECDBFDF9147
:10054000CF911F910895CF93DF9300D000D0CDB706
:10055000DEB721ED298321E02A83282F2F772B83F3
:10056000880F892F881F990B8F778C8364E0CE01C9
:1005700001960E940A010F900F900F900F90DF914B
:10058000CF910895CF93DF9300D000D0CDB7DEB7E1
:1005900021ED298322E02A83282F2F772B83880FB0
:1005A000892F881F990B8F778C8364E0CE01019689
:1005B0000E940A010F900F900F900F90DF91CF9142
:1005C0000895CF93DF9300D000D0CDB7DEB721EDF3
:1005D000298323E02A83282F2F772B83880F892FC5
:1005E000881F990B8F778C8364E0CE0101960E945F
:1005F0000A010F900F900F900F90DF91CF91089507
:04060000F894FFCF9C
:00000001FF
