S00F000050726F6A6563742E737265633E
S11300000C9434000C9446000C9446000C94460066
S11300100C9446000C9446000C9446000C94460044
S11300200C9446000C9446000C9446000C94460034
S11300300C9446000C9446000C9446000C94460024
S11300400C9446000C9446000C9448000C94460012
S11300500C9446000C9446000C9446000C94460004
S11300600C9446000C94460011241FBECFEFD8E038
S1130070DEBFCDBF21E0A0E0B1E001C01D92A530FC
S1130080B207E1F70E9496000C9429030C94000037
S11300901F920F920FB60F9211248F938091C60076
S11300A080930401809100018330D0F58091040194
S11300B08D3321F0809104018E3329F48091040161
S11300C08093010128C080910401829586958695CC
S11300D0837041F0809104018295869586958370A2
S11300E0813029F4809104018093020114C080912D
S11300F004018295869586958370823041F08091C3
S113010004018295869586958370833021F48091CD
S1130110040180930301809100018F5F80930001AB
S11301208F910F900FBE0F901F9018950E9407019A
S11301300E948D0288E60E94260178948091000135
S11301408330E0F3809101018D3329F480E293E060
S11301500E940A0308C0809101018E3321F480E0DB
S113016090E00E940A03809102018295869586950B
S11301708370813069F4E1E0F1E081818F738183E0
S113018081812DE0829FC00111240E94CC0213C002
S113019080910201829586958695837061F4E1E0F1
S11301A0F1E081818F738183218133EF3203C001B8
S11301B011240E94CC028091030182958695869534
S11301C08370833069F4E1E0F1E082818F7382838C
S11301D082812DE0829FC00111240E94EB0214C091
S11301E0809103018295869586958370823061F4AF
S11301F0E1E0F1E082818F738283228133EF320365
S1130200C00111240E94EB021092000197CFECEB85
S1130210F0E0108288E08093B80084E08083089541
S113022084EA8093BC008091BC008823E4F708959D
S11302308093BB0084E88093BC008091BC00882339
S1130240E4F7089584E98093BC00089598E99093B5
S1130250C10096E09093C2008093C40008950F9368
S11302601F93CF93DF938C01D62F0E94100180E25D
S11302700E941801C0E007C0F801EC0FF11D808155
S11302800E941801CF5FCD17B8F30E942201DF91BD
S1130290CF911F910F9108950E94100180E20E9456
S11302A0180186E90E94180184E70E9418010E943F
S11302B022010895CF92DF92EF92FF920F931F9342
S11302C0CF93DF93CDB7DEB764970FB6F894DEBF54
S11302D00FBECDBF8B010F2EFCE9DF2EF02DD9828E
S11302E0EE24E394EA822AE02B83282F2F77C22E70
S11302F02C83880F892F881F990B9195282F2F778E
S1130300F22E2D8365E0CE0101960E942F01DE823C
S1130310EF828CE08887C986FA8665E0CE0106966E
S11303200E942F01DB86EC868EE08D87802F8F77ED
S1130330F82E8E87000F012F001F110B11950F77D8
S11303400F8765E0CE010B960E942F01D88AE98AB7
S113035080E18A8BFB8A0C8B65E0CE0140960E947B
S11303602F0164960FB6F894DEBF0FBECDBFDF91A8
S1130370CF911F910F91FF90EF90DF90CF90089550
S1130380CF92DF92EF92FF920F931F93CF93DF935D
S1130390CDB7DEB764970FB6F894DEBF0FBECDBFFE
S11303A07B010F2EFCE9DF2EF02DD98202E00A83B7
S11303B02AE02B83282F2F77C22E2C83880F892F96
S11303C0881F990B9195182F1F771D8365E0CE0127
S11303D001960E942F01DE820F838CE08887C986F4
S11303E01A8765E0CE0106960E942F01DB860C87F2
S11303F08EE08D87CE86C701880F892F881F990BC1
S11304009195182F1F771F8765E0CE010B960E94E8
S11304102F01D88A098B80E18A8B8E2D8F778B8B65
S11304201C8B65E0CE0140960E942F0164960FB6A6
S1130430F894DEBF0FBECDBFDF91CF911F910F9116
S1130440FF90EF90DF90CF900895CF92DF92EF92DC
S1130450FF920F931F93CF93DF93CDB7DEB76497CB
S11304600FB6F894DEBF0FBECDBF8B010F2EFCE993
S1130470DF2EF02DD9820F2EF3E0EF2EF02DEA823D
S11304802AE02B83282F2F77C22E2C83880F892FC5
S1130490881F990B9195282F2F77F22E2D8365E0D5
S11304A0CE0101960E942F01DE82EF828CE08887C4
S11304B0C986FA8665E0CE0106960E942F01DB8686
S11304C0EC868EE08D87802F8F77F82E8E87000F35
S11304D0012F001F110B11950F770F8765E0CE01D7
S11304E00B960E942F01D88AE98A80E18A8BFB8AC5
S11304F00C8B65E0CE0140960E942F0164960FB6E6
S1130500F894DEBF0FBECDBFDF91CF911F910F9145
S1130510FF90EF90DF90CF9008951F93CF93DF93D8
S1130520CDB7DEB727970FB6F894DEBF0FBECDBFA9
S11305300E944C018BE8898314E01A838BE78B8338
S113054083E48C8364E0CE0101960E942F0189EA42
S11305508D831E821F8363E0CE0105960E942F01C6
S113056060E273E080E293E00E945A0160E273E08B
S113057080E293E00E94C00164E670E080E293E0D0
S11305800E94250227960FB6F894DEBF0FBECDBF9A
S1130590DF91CF911F910895CF93DF9300D000D0C6
S11305A0CDB7DEB721ED298321E02A83282F2F77C9
S11305B02B83880F892F881F990B8F778C8364E096
S11305C0CE0101960E942F010F900F900F900F9073
S11305D0DF91CF910895CF93DF9300D000D0CDB7B2
S11305E0DEB721ED298322E02A83282F2F772B835E
S11305F0880F892F881F990B8F778C8364E0CE0135
S113060001960E942F010F900F900F900F90DF9191
S1130610CF910895CF93DF9300D000D0CDB7DEB74C
S113062021ED298323E02A83282F2F772B83880F1A
S1130630892F881F990B8F778C8364E0CE010196F4
S11306400E942F010F900F900F900F90DF91CF9188
S10906500895F894FFCFA9
S9030000FC
