:100000000C9434000C9446000C9446000C9446006A
:100010000C9446000C9446000C9446000C94460048
:100020000C9446000C9446000C9446000C94460038
:100030000C9446000C9446000C9446000C94460028
:100040000C9446000C9446000C9448000C94460016
:100050000C9446000C9446000C9446000C94460008
:100060000C9446000C94460011241FBECFEFD8E03C
:10007000DEBFCDBF21E0A0E0B1E001C01D92A23003
:10008000B207E1F70E9463000C94FB020C9400009D
:100090001F920F920FB60F9211248F93EF93FF933D
:1000A000E6ECF0E080818093010180910101808382
:1000B00081E080930001FF91EF918F910F900FBE2F
:1000C0000F901F9018950E94DD000E945F0288E645
:1000D0000E94FC007894C0E080910001882309F41C
:1000E00060C0809101018B3421F0809101018B3639
:1000F00011F481E0C82780910101873521F08091BA
:100100000101873749F480E293E00E949E0280E279
:1001100093E00E94BD0232C080910101833521F03D
:1001200080910101833749F480EE9CEF0E949E028A
:1001300080EE9CEF0E94BD0221C0809101018134BC
:1001400021F080910101813649F480E293E00E9420
:100150009E0280EE9CEF0E94BD0210C080910101C2
:10016000843421F080910101843641F480EE9CEFCB
:100170000E949E0280E293E00E94BD022FEF84E382
:100180009CE0215080409040E1F700C0000080E0FA
:1001900090E00E949E0280E090E00E94BD021092DA
:1001A0000001C11105C080E090E00E94DC0294CF04
:1001B00080E293E00E94DC028FCFECEBF0E0108253
:1001C00088E08093B80084E08083089584EA809377
:1001D000BC008091BC008823E4F708958093BB00A5
:1001E00084E88093BC008091BC008823E4F70895E4
:1001F00084E98093BC00089598E99093C10096E04B
:100200009093C2008093C40008950F931F93CF93DF
:10021000DF938C01D62F0E94E60080E20E94EE0060
:10022000C0E007C0F801EC0FF11D80810E94EE00D4
:10023000CF5FCD17B8F30E94F800DF91CF911F91E7
:100240000F9108950E94E60080E20E94EE0086E988
:100250000E94EE0084E70E94EE000E94F8000895DC
:10026000CF92DF92EF92FF920F931F93CF93DF9382
:10027000CDB7DEB764970FB6F894DEBF0FBECDBF23
:100280007B010F2EFCE9DF2EF02DD98201E00A83DD
:100290002AE02B83282F2F77C22E2C83880F892FBB
:1002A000881F990B9195182F1F771D8365E0CE014C
:1002B00001960E940501DE820F838CE08887C98643
:1002C0001A8765E0CE0106960E940501DB860C8741
:1002D0008EE08D87CE86C701880F892F881F990BE6
:1002E0009195182F1F771F8765E0CE010B960E940E
:1002F0000501D88A098B80E18A8B8E2D8F778B8BB5
:100300001C8B65E0CE0140960E94050164960FB6F5
:10031000F894DEBF0FBECDBFDF91CF911F910F913B
:10032000FF90EF90DF90CF900895CF92DF92EF9201
:10033000FF920F931F93CF93DF93CDB7DEB76497F0
:100340000FB6F894DEBF0FBECDBF7B010F2EFCE9C8
:10035000DF2EF02DD98202E00A832AE02B83282F9A
:100360002F77C22E2C83880F892F881F990B919588
:10037000182F1F771D8365E0CE0101960E940501AD
:10038000DE820F838CE08887C9861A8765E0CE01FC
:1003900006960E940501DB860C878EE08D87CE864F
:1003A000C701880F892F881F990B9195182F1F77E8
:1003B0001F8765E0CE010B960E940501D88A098B44
:1003C00080E18A8B8E2D8F778B8B1C8B65E0CE0125
:1003D00040960E94050164960FB6F894DEBF0FBEEA
:1003E000CDBFDF91CF911F910F91FF90EF90DF90E4
:1003F000CF900895CF92DF92EF92FF920F931F93C9
:10040000CF93DF93CDB7DEB764970FB6F894DEBF16
:100410000FBECDBF7B010F2EFCE9DF2EF02DD98260
:1004200003E00A832AE02B83282F2F77C22E2C8308
:10043000880F892F881F990B9195182F1F771D837F
:1004400065E0CE0101960E940501DE820F838CE0FB
:100450008887C9861A8765E0CE0106960E94050145
:10046000DB860C878EE08D87CE86C701880F892FAB
:10047000881F990B9195182F1F771F8765E0CE0174
:100480000B960E940501D88A098B80E18A8B8E2DFC
:100490008F778B8B1C8B65E0CE0140960E94050107
:1004A00064960FB6F894DEBF0FBECDBFDF91CF913B
:1004B0001F910F91FF90EF90DF90CF9008951F93C1
:1004C000CF93DF93CDB7DEB727970FB6F894DEBF93
:1004D0000FBECDBF0E9422018BE8898314E01A83EE
:1004E0008BE78B8383E48C8364E0CE0101960E94CA
:1004F000050189EA8D831E821F8363E0CE01059684
:100500000E94050160E273E080E293E00E94300106
:1005100060E273E080E293E00E94950160E273E0A4
:1005200080E293E00E94FA0127960FB6F894DEBFAE
:100530000FBECDBFDF91CF911F910895CF93DF9371
:1005400000D000D0CDB7DEB721ED298321E02A838A
:10055000282F2F772B83880F892F881F990B8F7750
:100560008C8364E0CE0101960E9405010F900F90EC
:100570000F900F90DF91CF910895CF93DF9300D02C
:1005800000D0CDB7DEB721ED298322E02A83282FC2
:100590002F772B83880F892F881F990B8F778C8358
:1005A00064E0CE0101960E9405010F900F900F901C
:1005B0000F90DF91CF910895CF93DF9300D000D0BB
:1005C000CDB7DEB721ED298323E02A83282F2F77AB
:1005D0002B83880F892F881F990B8F778C8364E07A
:1005E000CE0101960E9405010F900F900F900F9081
:0A05F000DF91CF910895F894FFCF3A
:00000001FF
